{
  "contractName": "SubscriptionV1",
  "abi": [
    {
      "inputs": [
        {
          "internalType": "contract ISuperfluid",
          "name": "host",
          "type": "address"
        },
        {
          "internalType": "contract IConstantFlowAgreementV1",
          "name": "cfa",
          "type": "address"
        },
        {
          "internalType": "contract IInstantDistributionAgreementV1",
          "name": "ida",
          "type": "address"
        },
        {
          "internalType": "contract IERC20",
          "name": "acceptedERC20Token",
          "type": "address"
        },
        {
          "internalType": "contract IERC20",
          "name": "rewardToken",
          "type": "address"
        },
        {
          "internalType": "contract IUniswapV2Router02",
          "name": "uniswapRouter",
          "type": "address"
        },
        {
          "internalType": "int96",
          "name": "minFlowRate",
          "type": "int96"
        }
      ],
      "stateMutability": "nonpayable",
      "type": "constructor"
    },
    {
      "anonymous": false,
      "inputs": [
        {
          "indexed": false,
          "internalType": "uint32",
          "name": "index",
          "type": "uint32"
        },
        {
          "indexed": false,
          "internalType": "uint256[]",
          "name": "amounts",
          "type": "uint256[]"
        }
      ],
      "name": "Distribution",
      "type": "event"
    },
    {
      "anonymous": false,
      "inputs": [
        {
          "indexed": true,
          "internalType": "address",
          "name": "previousOwner",
          "type": "address"
        },
        {
          "indexed": true,
          "internalType": "address",
          "name": "newOwner",
          "type": "address"
        }
      ],
      "name": "OwnershipTransferred",
      "type": "event"
    },
    {
      "inputs": [],
      "name": "_acceptedERC20",
      "outputs": [
        {
          "internalType": "contract IERC20",
          "name": "",
          "type": "address"
        }
      ],
      "stateMutability": "view",
      "type": "function",
      "constant": true
    },
    {
      "inputs": [],
      "name": "_acceptedSuperToken",
      "outputs": [
        {
          "internalType": "contract ISuperToken",
          "name": "",
          "type": "address"
        }
      ],
      "stateMutability": "view",
      "type": "function",
      "constant": true
    },
    {
      "inputs": [],
      "name": "_rewardERC20",
      "outputs": [
        {
          "internalType": "contract IERC20",
          "name": "",
          "type": "address"
        }
      ],
      "stateMutability": "view",
      "type": "function",
      "constant": true
    },
    {
      "inputs": [],
      "name": "_rewardSuperToken",
      "outputs": [
        {
          "internalType": "contract ISuperToken",
          "name": "",
          "type": "address"
        }
      ],
      "stateMutability": "view",
      "type": "function",
      "constant": true
    },
    {
      "inputs": [],
      "name": "owner",
      "outputs": [
        {
          "internalType": "address",
          "name": "",
          "type": "address"
        }
      ],
      "stateMutability": "view",
      "type": "function",
      "constant": true
    },
    {
      "inputs": [],
      "name": "renounceOwnership",
      "outputs": [],
      "stateMutability": "nonpayable",
      "type": "function"
    },
    {
      "inputs": [
        {
          "internalType": "address",
          "name": "newOwner",
          "type": "address"
        }
      ],
      "name": "transferOwnership",
      "outputs": [],
      "stateMutability": "nonpayable",
      "type": "function"
    },
    {
      "inputs": [
        {
          "internalType": "address",
          "name": "user",
          "type": "address"
        }
      ],
      "name": "hasSubscription",
      "outputs": [
        {
          "internalType": "bool",
          "name": "",
          "type": "bool"
        }
      ],
      "stateMutability": "view",
      "type": "function",
      "constant": true
    },
    {
      "inputs": [
        {
          "internalType": "address",
          "name": "user",
          "type": "address"
        }
      ],
      "name": "subFlow",
      "outputs": [
        {
          "internalType": "int96",
          "name": "",
          "type": "int96"
        }
      ],
      "stateMutability": "view",
      "type": "function",
      "constant": true
    },
    {
      "inputs": [],
      "name": "acceptedTokenBalance",
      "outputs": [
        {
          "internalType": "uint256",
          "name": "",
          "type": "uint256"
        }
      ],
      "stateMutability": "view",
      "type": "function",
      "constant": true
    },
    {
      "inputs": [
        {
          "internalType": "int96",
          "name": "newFlowRate",
          "type": "int96"
        }
      ],
      "name": "setMinFlowRate",
      "outputs": [],
      "stateMutability": "nonpayable",
      "type": "function"
    },
    {
      "inputs": [
        {
          "internalType": "uint256",
          "name": "amountOutMin",
          "type": "uint256"
        },
        {
          "internalType": "uint32",
          "name": "idaIndex",
          "type": "uint32"
        }
      ],
      "name": "distributeReward",
      "outputs": [
        {
          "internalType": "uint32",
          "name": "",
          "type": "uint32"
        }
      ],
      "stateMutability": "nonpayable",
      "type": "function"
    },
    {
      "inputs": [
        {
          "internalType": "contract ISuperToken",
          "name": "superToken",
          "type": "address"
        },
        {
          "internalType": "bytes",
          "name": "",
          "type": "bytes"
        },
        {
          "internalType": "address",
          "name": "agreementClass",
          "type": "address"
        },
        {
          "internalType": "bytes32",
          "name": "",
          "type": "bytes32"
        }
      ],
      "name": "beforeAgreementCreated",
      "outputs": [
        {
          "internalType": "bytes",
          "name": "",
          "type": "bytes"
        }
      ],
      "stateMutability": "view",
      "type": "function",
      "constant": true
    },
    {
      "inputs": [
        {
          "internalType": "contract ISuperToken",
          "name": "",
          "type": "address"
        },
        {
          "internalType": "bytes",
          "name": "ctx",
          "type": "bytes"
        },
        {
          "internalType": "address",
          "name": "agreementClass",
          "type": "address"
        },
        {
          "internalType": "bytes32",
          "name": "agreementId",
          "type": "bytes32"
        },
        {
          "internalType": "bytes",
          "name": "",
          "type": "bytes"
        }
      ],
      "name": "afterAgreementCreated",
      "outputs": [
        {
          "internalType": "bytes",
          "name": "newCtx",
          "type": "bytes"
        }
      ],
      "stateMutability": "nonpayable",
      "type": "function"
    },
    {
      "inputs": [
        {
          "internalType": "contract ISuperToken",
          "name": "superToken",
          "type": "address"
        },
        {
          "internalType": "bytes",
          "name": "",
          "type": "bytes"
        },
        {
          "internalType": "address",
          "name": "agreementClass",
          "type": "address"
        },
        {
          "internalType": "bytes32",
          "name": "",
          "type": "bytes32"
        }
      ],
      "name": "beforeAgreementUpdated",
      "outputs": [
        {
          "internalType": "bytes",
          "name": "",
          "type": "bytes"
        }
      ],
      "stateMutability": "view",
      "type": "function",
      "constant": true
    },
    {
      "inputs": [
        {
          "internalType": "contract ISuperToken",
          "name": "",
          "type": "address"
        },
        {
          "internalType": "bytes",
          "name": "ctx",
          "type": "bytes"
        },
        {
          "internalType": "address",
          "name": "agreementClass",
          "type": "address"
        },
        {
          "internalType": "bytes32",
          "name": "agreementId",
          "type": "bytes32"
        },
        {
          "internalType": "bytes",
          "name": "",
          "type": "bytes"
        }
      ],
      "name": "afterAgreementUpdated",
      "outputs": [
        {
          "internalType": "bytes",
          "name": "newCtx",
          "type": "bytes"
        }
      ],
      "stateMutability": "nonpayable",
      "type": "function"
    },
    {
      "inputs": [
        {
          "internalType": "contract ISuperToken",
          "name": "superToken",
          "type": "address"
        },
        {
          "internalType": "bytes",
          "name": "",
          "type": "bytes"
        },
        {
          "internalType": "address",
          "name": "agreementClass",
          "type": "address"
        },
        {
          "internalType": "bytes32",
          "name": "",
          "type": "bytes32"
        }
      ],
      "name": "beforeAgreementTerminated",
      "outputs": [
        {
          "internalType": "bytes",
          "name": "",
          "type": "bytes"
        }
      ],
      "stateMutability": "view",
      "type": "function",
      "constant": true
    },
    {
      "inputs": [
        {
          "internalType": "contract ISuperToken",
          "name": "",
          "type": "address"
        },
        {
          "internalType": "bytes",
          "name": "ctx",
          "type": "bytes"
        },
        {
          "internalType": "address",
          "name": "",
          "type": "address"
        },
        {
          "internalType": "bytes32",
          "name": "",
          "type": "bytes32"
        },
        {
          "internalType": "bytes",
          "name": "",
          "type": "bytes"
        }
      ],
      "name": "afterAgreementTerminated",
      "outputs": [
        {
          "internalType": "bytes",
          "name": "newCtx",
          "type": "bytes"
        }
      ],
      "stateMutability": "nonpayable",
      "type": "function"
    },
    {
      "inputs": [
        {
          "internalType": "address",
          "name": "",
          "type": "address"
        },
        {
          "internalType": "address",
          "name": "",
          "type": "address"
        },
        {
          "internalType": "address",
          "name": "",
          "type": "address"
        },
        {
          "internalType": "uint256",
          "name": "",
          "type": "uint256"
        },
        {
          "internalType": "bytes",
          "name": "",
          "type": "bytes"
        },
        {
          "internalType": "bytes",
          "name": "",
          "type": "bytes"
        }
      ],
      "name": "tokensReceived",
      "outputs": [],
      "stateMutability": "nonpayable",
      "type": "function"
    }
  ],
  "bytecode": "0x6080604052731820a4b7618bde71dce8cdc73aab6c95905fad24600960006101000a81548173ffffffffffffffffffffffffffffffffffffffff021916908373ffffffffffffffffffffffffffffffffffffffff1602179055503480156200006657600080fd5b506040516200507f3803806200507f833981810160405260e08110156200008c57600080fd5b81019080805190602001909291908051906020019092919080519060200190929190805190602001909291908051906020019092919080519060200190929190805190602001909291905050506000620000eb62000f1160201b60201c565b9050806000806101000a81548173ffffffffffffffffffffffffffffffffffffffff021916908373ffffffffffffffffffffffffffffffffffffffff1602179055508073ffffffffffffffffffffffffffffffffffffffff16600073ffffffffffffffffffffffffffffffffffffffff167f8be0079c531659141344cd1fd0a4f28419497f9722a3daafe3b4186f6b6457e060405160405180910390a350600073ffffffffffffffffffffffffffffffffffffffff168773ffffffffffffffffffffffffffffffffffffffff161415620001c157fe5b600073ffffffffffffffffffffffffffffffffffffffff168673ffffffffffffffffffffffffffffffffffffffff161415620001f957fe5b600073ffffffffffffffffffffffffffffffffffffffff168573ffffffffffffffffffffffffffffffffffffffff1614156200023157fe5b600073ffffffffffffffffffffffffffffffffffffffff168473ffffffffffffffffffffffffffffffffffffffff1614156200026957fe5b600073ffffffffffffffffffffffffffffffffffffffff168373ffffffffffffffffffffffffffffffffffffffff161415620002a157fe5b600073ffffffffffffffffffffffffffffffffffffffff168273ffffffffffffffffffffffffffffffffffffffff161415620002d957fe5b86600160006101000a81548173ffffffffffffffffffffffffffffffffffffffff021916908373ffffffffffffffffffffffffffffffffffffffff16021790555085600260006101000a81548173ffffffffffffffffffffffffffffffffffffffff021916908373ffffffffffffffffffffffffffffffffffffffff16021790555084600360006101000a81548173ffffffffffffffffffffffffffffffffffffffff021916908373ffffffffffffffffffffffffffffffffffffffff160217905550600060019050600160009054906101000a900473ffffffffffffffffffffffffffffffffffffffff1673ffffffffffffffffffffffffffffffffffffffff1663ad3915c8826040518263ffffffff1660e01b815260040180828152602001915050600060405180830381600087803b1580156200041857600080fd5b505af11580156200042d573d6000803e3d6000fd5b5050505084600460006101000a81548173ffffffffffffffffffffffffffffffffffffffff021916908373ffffffffffffffffffffffffffffffffffffffff1602179055506000600160009054906101000a900473ffffffffffffffffffffffffffffffffffffffff1673ffffffffffffffffffffffffffffffffffffffff1663393a2bfd878873ffffffffffffffffffffffffffffffffffffffff166395d89b416040518163ffffffff1660e01b815260040160006040518083038186803b158015620004fa57600080fd5b505afa1580156200050f573d6000803e3d6000fd5b505050506040513d6000823e3d601f19601f8201168201806040525060208110156200053a57600080fd5b81019080805160405193929190846401000000008211156200055b57600080fd5b838201915060208201858111156200057257600080fd5b82518660018202830111640100000000821117156200059057600080fd5b8083526020830192505050908051906020019080838360005b83811015620005c6578082015181840152602081019050620005a9565b50505050905090810190601f168015620005f45780820380516001836020036101000a031916815260200191505b506040525050506040516020018082805190602001908083835b602083106200063357805182526020820191506020810190506020830392506200060e565b6001836020036101000a038019825116818451168082178552505050505050905001807f78000000000000000000000000000000000000000000000000000000000000008152506001019150506040516020818303038152906040526040518363ffffffff1660e01b8152600401808373ffffffffffffffffffffffffffffffffffffffff16815260200180602001828103825283818151815260200191508051906020019080838360005b83811015620006fc578082015181840152602081019050620006df565b50505050905090810190601f1680156200072a5780820380516001836020036101000a031916815260200191505b5093505050506040805180830381600087803b1580156200074a57600080fd5b505af11580156200075f573d6000803e3d6000fd5b505050506040513d60408110156200077657600080fd5b81019080805190602001909291908051906020019092919050505050905080600560006101000a81548173ffffffffffffffffffffffffffffffffffffffff021916908373ffffffffffffffffffffffffffffffffffffffff16021790555084600660006101000a81548173ffffffffffffffffffffffffffffffffffffffff021916908373ffffffffffffffffffffffffffffffffffffffff1602179055506000600160009054906101000a900473ffffffffffffffffffffffffffffffffffffffff1673ffffffffffffffffffffffffffffffffffffffff1663393a2bfd878873ffffffffffffffffffffffffffffffffffffffff166395d89b416040518163ffffffff1660e01b815260040160006040518083038186803b1580156200089e57600080fd5b505afa158015620008b3573d6000803e3d6000fd5b505050506040513d6000823e3d601f19601f820116820180604052506020811015620008de57600080fd5b8101908080516040519392919084640100000000821115620008ff57600080fd5b838201915060208201858111156200091657600080fd5b82518660018202830111640100000000821117156200093457600080fd5b8083526020830192505050908051906020019080838360005b838110156200096a5780820151818401526020810190506200094d565b50505050905090810190601f168015620009985780820380516001836020036101000a031916815260200191505b506040525050506040516020018082805190602001908083835b60208310620009d75780518252602082019150602081019050602083039250620009b2565b6001836020036101000a038019825116818451168082178552505050505050905001807f78000000000000000000000000000000000000000000000000000000000000008152506001019150506040516020818303038152906040526040518363ffffffff1660e01b8152600401808373ffffffffffffffffffffffffffffffffffffffff16815260200180602001828103825283818151815260200191508051906020019080838360005b8381101562000aa057808201518184015260208101905062000a83565b50505050905090810190601f16801562000ace5780820380516001836020036101000a031916815260200191505b5093505050506040805180830381600087803b15801562000aee57600080fd5b505af115801562000b03573d6000803e3d6000fd5b505050506040513d604081101562000b1a57600080fd5b81019080805190602001909291908051906020019092919050505050905080600760006101000a81548173ffffffffffffffffffffffffffffffffffffffff021916908373ffffffffffffffffffffffffffffffffffffffff16021790555084600860006101000a81548173ffffffffffffffffffffffffffffffffffffffff021916908373ffffffffffffffffffffffffffffffffffffffff16021790555083600060146101000a8154816bffffffffffffffffffffffff0219169083600b0b6bffffffffffffffffffffffff160217905550600460009054906101000a900473ffffffffffffffffffffffffffffffffffffffff1673ffffffffffffffffffffffffffffffffffffffff1663095ea7b3600860009054906101000a900473ffffffffffffffffffffffffffffffffffffffff167fffffffffffffffffffffffffffffffffffffffffffffffffffffffffffffffff6040518363ffffffff1660e01b8152600401808373ffffffffffffffffffffffffffffffffffffffff16815260200182815260200192505050602060405180830381600087803b15801562000cc457600080fd5b505af115801562000cd9573d6000803e3d6000fd5b505050506040513d602081101562000cf057600080fd5b810190808051906020019092919050505050600660009054906101000a900473ffffffffffffffffffffffffffffffffffffffff1673ffffffffffffffffffffffffffffffffffffffff1663095ea7b3600760009054906101000a900473ffffffffffffffffffffffffffffffffffffffff167fffffffffffffffffffffffffffffffffffffffffffffffffffffffffffffffff6040518363ffffffff1660e01b8152600401808373ffffffffffffffffffffffffffffffffffffffff16815260200182815260200192505050602060405180830381600087803b15801562000dd857600080fd5b505af115801562000ded573d6000803e3d6000fd5b505050506040513d602081101562000e0457600080fd5b810190808051906020019092919050505050600960009054906101000a900473ffffffffffffffffffffffffffffffffffffffff1673ffffffffffffffffffffffffffffffffffffffff166329965a1d307fb281fc8c12954d22544db45de3159a39272895b169a852b314f9cc762e44c53b306040518463ffffffff1660e01b8152600401808473ffffffffffffffffffffffffffffffffffffffff1681526020018381526020018273ffffffffffffffffffffffffffffffffffffffff1681526020019350505050600060405180830381600087803b15801562000ee857600080fd5b505af115801562000efd573d6000803e3d6000fd5b505050505050505050505050505062000f19565b600033905090565b6141568062000f296000396000f3fe608060405234801561001057600080fd5b50600436106101205760003560e01c80638d0cb9bc116100ad578063be6baf9b11610071578063be6baf9b14610847578063d002c9a5146109d8578063da37411e14610b69578063e44841f814610cfa578063f2fde38b14610d2e57610120565b80638d0cb9bc146106545780638da5cb5b1461068857806398a35c84146106bc578063b3ed852f146106da578063bd2da4a31461070b57610120565b806369e8977b116100f457806369e8977b14610530578063715018a6146105885780637514e80e14610592578063892d5ec3146105ec57806389c4f6a01461062057610120565b806223de291461012557806317dd68ce1461025d5780632d9c933814610399578063447e125a146104d5575b600080fd5b61025b600480360360c081101561013b57600080fd5b81019080803573ffffffffffffffffffffffffffffffffffffffff169060200190929190803573ffffffffffffffffffffffffffffffffffffffff169060200190929190803573ffffffffffffffffffffffffffffffffffffffff16906020019092919080359060200190929190803590602001906401000000008111156101c257600080fd5b8201836020820111156101d457600080fd5b803590602001918460018302840111640100000000831117156101f657600080fd5b90919293919293908035906020019064010000000081111561021757600080fd5b82018360208201111561022957600080fd5b8035906020019184600183028401116401000000008311171561024b57600080fd5b9091929391929390505050610d72565b005b61031e6004803603608081101561027357600080fd5b81019080803573ffffffffffffffffffffffffffffffffffffffff169060200190929190803590602001906401000000008111156102b057600080fd5b8201836020820111156102c257600080fd5b803590602001918460018302840111640100000000831117156102e457600080fd5b9091929391929390803573ffffffffffffffffffffffffffffffffffffffff16906020019092919080359060200190929190505050610d7c565b6040518080602001828103825283818151815260200191508051906020019080838360005b8381101561035e578082015181840152602081019050610343565b50505050905090810190601f16801561038b5780820380516001836020036101000a031916815260200191505b509250505060405180910390f35b61045a600480360360808110156103af57600080fd5b81019080803573ffffffffffffffffffffffffffffffffffffffff169060200190929190803590602001906401000000008111156103ec57600080fd5b8201836020820111156103fe57600080fd5b8035906020019184600183028401116401000000008311171561042057600080fd5b9091929391929390803573ffffffffffffffffffffffffffffffffffffffff16906020019092919080359060200190929190505050610e48565b6040518080602001828103825283818151815260200191508051906020019080838360005b8381101561049a57808201518184015260208101905061047f565b50505050905090810190601f1680156104c75780820380516001836020036101000a031916815260200191505b509250505060405180910390f35b610517600480360360208110156104eb57600080fd5b81019080803573ffffffffffffffffffffffffffffffffffffffff16906020019092919050505061115c565b6040518082600b0b815260200191505060405180910390f35b61056c6004803603604081101561054657600080fd5b8101908080359060200190929190803563ffffffff169060200190929190505050611230565b604051808263ffffffff16815260200191505060405180910390f35b610590612497565b005b6105d4600480360360208110156105a857600080fd5b81019080803573ffffffffffffffffffffffffffffffffffffffff16906020019092919050505061261d565b60405180821515815260200191505060405180910390f35b6105f4612709565b604051808273ffffffffffffffffffffffffffffffffffffffff16815260200191505060405180910390f35b61062861272f565b604051808273ffffffffffffffffffffffffffffffffffffffff16815260200191505060405180910390f35b61065c612755565b604051808273ffffffffffffffffffffffffffffffffffffffff16815260200191505060405180910390f35b61069061277b565b604051808273ffffffffffffffffffffffffffffffffffffffff16815260200191505060405180910390f35b6106c46127a4565b6040518082815260200191505060405180910390f35b610709600480360360208110156106f057600080fd5b810190808035600b0b906020019092919050505061286f565b005b6107cc6004803603608081101561072157600080fd5b81019080803573ffffffffffffffffffffffffffffffffffffffff1690602001909291908035906020019064010000000081111561075e57600080fd5b82018360208201111561077057600080fd5b8035906020019184600183028401116401000000008311171561079257600080fd5b9091929391929390803573ffffffffffffffffffffffffffffffffffffffff1690602001909291908035906020019092919050505061296e565b6040518080602001828103825283818151815260200191508051906020019080838360005b8381101561080c5780820151818401526020810190506107f1565b50505050905090810190601f1680156108395780820380516001836020036101000a031916815260200191505b509250505060405180910390f35b61095d600480360360a081101561085d57600080fd5b81019080803573ffffffffffffffffffffffffffffffffffffffff1690602001909291908035906020019064010000000081111561089a57600080fd5b8201836020820111156108ac57600080fd5b803590602001918460018302840111640100000000831117156108ce57600080fd5b9091929391929390803573ffffffffffffffffffffffffffffffffffffffff169060200190929190803590602001909291908035906020019064010000000081111561091957600080fd5b82018360208201111561092b57600080fd5b8035906020019184600183028401116401000000008311171561094d57600080fd5b9091929391929390505050612c82565b6040518080602001828103825283818151815260200191508051906020019080838360005b8381101561099d578082015181840152602081019050610982565b50505050905090810190601f1680156109ca5780820380516001836020036101000a031916815260200191505b509250505060405180910390f35b610aee600480360360a08110156109ee57600080fd5b81019080803573ffffffffffffffffffffffffffffffffffffffff16906020019092919080359060200190640100000000811115610a2b57600080fd5b820183602082011115610a3d57600080fd5b80359060200191846001830284011164010000000083111715610a5f57600080fd5b9091929391929390803573ffffffffffffffffffffffffffffffffffffffff1690602001909291908035906020019092919080359060200190640100000000811115610aaa57600080fd5b820183602082011115610abc57600080fd5b80359060200191846001830284011164010000000083111715610ade57600080fd5b9091929391929390505050612fa5565b6040518080602001828103825283818151815260200191508051906020019080838360005b83811015610b2e578082015181840152602081019050610b13565b50505050905090810190601f168015610b5b5780820380516001836020036101000a031916815260200191505b509250505060405180910390f35b610c7f600480360360a0811015610b7f57600080fd5b81019080803573ffffffffffffffffffffffffffffffffffffffff16906020019092919080359060200190640100000000811115610bbc57600080fd5b820183602082011115610bce57600080fd5b80359060200191846001830284011164010000000083111715610bf057600080fd5b9091929391929390803573ffffffffffffffffffffffffffffffffffffffff1690602001909291908035906020019092919080359060200190640100000000811115610c3b57600080fd5b820183602082011115610c4d57600080fd5b80359060200191846001830284011164010000000083111715610c6f57600080fd5b909192939192939050505061326d565b6040518080602001828103825283818151815260200191508051906020019080838360005b83811015610cbf578082015181840152602081019050610ca4565b50505050905090810190601f168015610cec5780820380516001836020036101000a031916815260200191505b509250505060405180910390f35b610d02613524565b604051808273ffffffffffffffffffffffffffffffffffffffff16815260200191505060405180910390f35b610d7060048036036020811015610d4457600080fd5b81019080803573ffffffffffffffffffffffffffffffffffffffff16906020019092919050505061354a565b005b5050505050505050565b6060610d8786613755565b8015610d985750610d97836137af565b5b15610df057600167ffffffffffffffff81118015610db557600080fd5b506040519080825280601f01601f191660200182016040528015610de85781602001600182028036833780820191505090505b509050610e3f565b600067ffffffffffffffff81118015610e0857600080fd5b506040519080825280601f01601f191660200182016040528015610e3b5781602001600182028036833780820191505090505b5090505b95945050505050565b6060600160009054906101000a900473ffffffffffffffffffffffffffffffffffffffff1673ffffffffffffffffffffffffffffffffffffffff163373ffffffffffffffffffffffffffffffffffffffff1614610ef0576040517f08c379a00000000000000000000000000000000000000000000000000000000081526004018080602001828103825260238152602001806140996023913960400191505060405180910390fd5b8583610efb82613755565b610f6d576040517f08c379a00000000000000000000000000000000000000000000000000000000081526004018080602001828103825260208152602001807f537562736372697074696f6e3a206e6f7420616363657074656420746f6b656e81525060200191505060405180910390fd5b610f76816137af565b610fcb576040517f08c379a00000000000000000000000000000000000000000000000000000000081526004018080602001828103825260228152602001806140bc6022913960400191505060405180910390fd5b600560009054906101000a900473ffffffffffffffffffffffffffffffffffffffff1673ffffffffffffffffffffffffffffffffffffffff168873ffffffffffffffffffffffffffffffffffffffff161461108e576040517f08c379a00000000000000000000000000000000000000000000000000000000081526004018080602001828103825260118152602001807f556e737570706f7274656420746f6b656e00000000000000000000000000000081525060200191505060405180910390fd5b600260009054906101000a900473ffffffffffffffffffffffffffffffffffffffff1673ffffffffffffffffffffffffffffffffffffffff168573ffffffffffffffffffffffffffffffffffffffff1614611151576040517f08c379a00000000000000000000000000000000000000000000000000000000081526004018080602001828103825260158152602001807f556e737570706f727465642061677265656d656e74000000000000000000000081525060200191505060405180910390fd5b505095945050505050565b600061116661401a565b600a60008473ffffffffffffffffffffffffffffffffffffffff1673ffffffffffffffffffffffffffffffffffffffff1681526020019081526020016000206040518060600160405290816000820160009054906101000a9004600b0b600b0b600b0b8152602001600182015481526020016002820160009054906101000a90046fffffffffffffffffffffffffffffffff166fffffffffffffffffffffffffffffffff166fffffffffffffffffffffffffffffffff168152505090508060000151915050919050565b60008061123b6127a4565b9050600560009054906101000a900473ffffffffffffffffffffffffffffffffffffffff1673ffffffffffffffffffffffffffffffffffffffff166311bcc81e826040518263ffffffff1660e01b815260040180828152602001915050600060405180830381600087803b1580156112b257600080fd5b505af11580156112c6573d6000803e3d6000fd5b505050506060600267ffffffffffffffff811180156112e457600080fd5b506040519080825280602002602001820160405280156113135781602001602082028036833780820191505090505b509050600460009054906101000a900473ffffffffffffffffffffffffffffffffffffffff168160008151811061134657fe5b602002602001019073ffffffffffffffffffffffffffffffffffffffff16908173ffffffffffffffffffffffffffffffffffffffff1681525050600660009054906101000a900473ffffffffffffffffffffffffffffffffffffffff16816001815181106113b057fe5b602002602001019073ffffffffffffffffffffffffffffffffffffffff16908173ffffffffffffffffffffffffffffffffffffffff16815250506060600860009054906101000a900473ffffffffffffffffffffffffffffffffffffffff1673ffffffffffffffffffffffffffffffffffffffff166338ed173984888530426040518663ffffffff1660e01b815260040180868152602001858152602001806020018473ffffffffffffffffffffffffffffffffffffffff168152602001838152602001828103825285818151815260200191508051906020019060200280838360005b838110156114af578082015181840152602081019050611494565b505050509050019650505050505050600060405180830381600087803b1580156114d857600080fd5b505af11580156114ec573d6000803e3d6000fd5b505050506040513d6000823e3d601f19601f82011682018060405250602081101561151657600080fd5b810190808051604051939291908464010000000082111561153657600080fd5b8382019150602082018581111561154c57600080fd5b825186602082028301116401000000008211171561156957600080fd5b8083526020830192505050908051906020019060200280838360005b838110156115a0578082015181840152602081019050611585565b5050505090500160405250505090506000600660009054906101000a900473ffffffffffffffffffffffffffffffffffffffff1673ffffffffffffffffffffffffffffffffffffffff166370a08231306040518263ffffffff1660e01b8152600401808273ffffffffffffffffffffffffffffffffffffffff16815260200191505060206040518083038186803b15801561163a57600080fd5b505afa15801561164e573d6000803e3d6000fd5b505050506040513d602081101561166457600080fd5b81019080805190602001909291905050509050600760009054906101000a900473ffffffffffffffffffffffffffffffffffffffff1673ffffffffffffffffffffffffffffffffffffffff166345977d03826040518263ffffffff1660e01b815260040180828152602001915050600060405180830381600087803b1580156116ec57600080fd5b505af1158015611700573d6000803e3d6000fd5b50505050600160009054906101000a900473ffffffffffffffffffffffffffffffffffffffff1673ffffffffffffffffffffffffffffffffffffffff166361d164d3600360009054906101000a900473ffffffffffffffffffffffffffffffffffffffff1663d787840a60e01b600760009054906101000a900473ffffffffffffffffffffffffffffffffffffffff168a600067ffffffffffffffff811180156117a957600080fd5b506040519080825280601f01601f1916602001820160405280156117dc5781602001600182028036833780820191505090505b50604051602401808473ffffffffffffffffffffffffffffffffffffffff1681526020018363ffffffff16815260200180602001828103825283818151815260200191508051906020019080838360005b8381101561184857808201518184015260208101905061182d565b50505050905090810190601f1680156118755780820380516001836020036101000a031916815260200191505b50945050505050604051602081830303815290604052907bffffffffffffffffffffffffffffffffffffffffffffffffffffffff19166020820180517bffffffffffffffffffffffffffffffffffffffffffffffffffffffff83818316178352505050506040518363ffffffff1660e01b8152600401808373ffffffffffffffffffffffffffffffffffffffff16815260200180602001828103825283818151815260200191508051906020019080838360005b83811015611944578082015181840152602081019050611929565b50505050905090810190601f1680156119715780820380516001836020036101000a031916815260200191505b509350505050600060405180830381600087803b15801561199157600080fd5b505af11580156119a5573d6000803e3d6000fd5b505050506040513d6000823e3d601f19601f8201168201806040525060208110156119cf57600080fd5b81019080805160405193929190846401000000008211156119ef57600080fd5b83820191506020820185811115611a0557600080fd5b8251866001820283011164010000000082111715611a2257600080fd5b8083526020830192505050908051906020019080838360005b83811015611a56578082015181840152602081019050611a3b565b50505050905090810190601f168015611a835780820380516001836020036101000a031916815260200191505b506040525050505060005b611a98600b61385b565b811015612077576000611ab582600b61387090919063ffffffff16565b9050611abf61401a565b600a60008373ffffffffffffffffffffffffffffffffffffffff1673ffffffffffffffffffffffffffffffffffffffff1681526020019081526020016000206040518060600160405290816000820160009054906101000a9004600b0b600b0b600b0b8152602001600182015481526020016002820160009054906101000a90046fffffffffffffffffffffffffffffffff166fffffffffffffffffffffffffffffffff166fffffffffffffffffffffffffffffffff16815250509050600160009054906101000a900473ffffffffffffffffffffffffffffffffffffffff1673ffffffffffffffffffffffffffffffffffffffff166361d164d3600360009054906101000a900473ffffffffffffffffffffffffffffffffffffffff1663232d2b5860e01b600760009054906101000a900473ffffffffffffffffffffffffffffffffffffffff168d87611c138861388a565b600067ffffffffffffffff81118015611c2b57600080fd5b506040519080825280601f01601f191660200182016040528015611c5e5781602001600182028036833780820191505090505b50604051602401808673ffffffffffffffffffffffffffffffffffffffff1681526020018563ffffffff1681526020018473ffffffffffffffffffffffffffffffffffffffff168152602001836fffffffffffffffffffffffffffffffff16815260200180602001828103825283818151815260200191508051906020019080838360005b83811015611cfe578082015181840152602081019050611ce3565b50505050905090810190601f168015611d2b5780820380516001836020036101000a031916815260200191505b509650505050505050604051602081830303815290604052907bffffffffffffffffffffffffffffffffffffffffffffffffffffffff19166020820180517bffffffffffffffffffffffffffffffffffffffffffffffffffffffff83818316178352505050506040518363ffffffff1660e01b8152600401808373ffffffffffffffffffffffffffffffffffffffff16815260200180602001828103825283818151815260200191508051906020019080838360005b83811015611dfc578082015181840152602081019050611de1565b50505050905090810190601f168015611e295780820380516001836020036101000a031916815260200191505b509350505050600060405180830381600087803b158015611e4957600080fd5b505af1158015611e5d573d6000803e3d6000fd5b505050506040513d6000823e3d601f19601f820116820180604052506020811015611e8757600080fd5b8101908080516040519392919084640100000000821115611ea757600080fd5b83820191506020820185811115611ebd57600080fd5b8251866001820283011164010000000082111715611eda57600080fd5b8083526020830192505050908051906020019080838360005b83811015611f0e578082015181840152602081019050611ef3565b50505050905090810190601f168015611f3b5780820380516001836020036101000a031916815260200191505b506040525050505060008160000151600b0b1415611f6d57611f6782600b61397890919063ffffffff16565b50611f76565b82806001019350505b60405180606001604052808260000151600b0b815260200143815260200160006fffffffffffffffffffffffffffffffff16815250600a60008473ffffffffffffffffffffffffffffffffffffffff1673ffffffffffffffffffffffffffffffffffffffff16815260200190815260200160002060008201518160000160006101000a8154816bffffffffffffffffffffffff0219169083600b0b6bffffffffffffffffffffffff1602179055506020820151816001015560408201518160020160006101000a8154816fffffffffffffffffffffffffffffffff02191690836fffffffffffffffffffffffffffffffff1602179055509050505050611a8e565b600160009054906101000a900473ffffffffffffffffffffffffffffffffffffffff1673ffffffffffffffffffffffffffffffffffffffff166361d164d3600360009054906101000a900473ffffffffffffffffffffffffffffffffffffffff1663b96731c260e01b600760009054906101000a900473ffffffffffffffffffffffffffffffffffffffff168b87600067ffffffffffffffff8111801561211d57600080fd5b506040519080825280601f01601f1916602001820160405280156121505781602001600182028036833780820191505090505b50604051602401808573ffffffffffffffffffffffffffffffffffffffff1681526020018463ffffffff16815260200183815260200180602001828103825283818151815260200191508051906020019080838360005b838110156121c25780820151818401526020810190506121a7565b50505050905090810190601f1680156121ef5780820380516001836020036101000a031916815260200191505b5095505050505050604051602081830303815290604052907bffffffffffffffffffffffffffffffffffffffffffffffffffffffff19166020820180517bffffffffffffffffffffffffffffffffffffffffffffffffffffffff83818316178352505050506040518363ffffffff1660e01b8152600401808373ffffffffffffffffffffffffffffffffffffffff16815260200180602001828103825283818151815260200191508051906020019080838360005b838110156122bf5780820151818401526020810190506122a4565b50505050905090810190601f1680156122ec5780820380516001836020036101000a031916815260200191505b509350505050600060405180830381600087803b15801561230c57600080fd5b505af1158015612320573d6000803e3d6000fd5b505050506040513d6000823e3d601f19601f82011682018060405250602081101561234a57600080fd5b810190808051604051939291908464010000000082111561236a57600080fd5b8382019150602082018581111561238057600080fd5b825186600182028301116401000000008211171561239d57600080fd5b8083526020830192505050908051906020019080838360005b838110156123d15780820151818401526020810190506123b6565b50505050905090810190601f1680156123fe5780820380516001836020036101000a031916815260200191505b50604052505050507f477218df56844514b8e3044203cced555e2f4effbcb5829d00c52fb6e6feeb9d8784604051808363ffffffff16815260200180602001828103825283818151815260200191508051906020019060200280838360005b8381101561247857808201518184015260208101905061245d565b50505050905001935050505060405180910390a1505050505092915050565b61249f6139a8565b73ffffffffffffffffffffffffffffffffffffffff1660008054906101000a900473ffffffffffffffffffffffffffffffffffffffff1673ffffffffffffffffffffffffffffffffffffffff161461255f576040517f08c379a00000000000000000000000000000000000000000000000000000000081526004018080602001828103825260208152602001807f4f776e61626c653a2063616c6c6572206973206e6f7420746865206f776e657281525060200191505060405180910390fd5b600073ffffffffffffffffffffffffffffffffffffffff1660008054906101000a900473ffffffffffffffffffffffffffffffffffffffff1673ffffffffffffffffffffffffffffffffffffffff167f8be0079c531659141344cd1fd0a4f28419497f9722a3daafe3b4186f6b6457e060405160405180910390a360008060006101000a81548173ffffffffffffffffffffffffffffffffffffffff021916908373ffffffffffffffffffffffffffffffffffffffff160217905550565b600061262761401a565b600a60008473ffffffffffffffffffffffffffffffffffffffff1673ffffffffffffffffffffffffffffffffffffffff1681526020019081526020016000206040518060600160405290816000820160009054906101000a9004600b0b600b0b600b0b8152602001600182015481526020016002820160009054906101000a90046fffffffffffffffffffffffffffffffff166fffffffffffffffffffffffffffffffff166fffffffffffffffffffffffffffffffff16815250509050600060149054906101000a9004600b0b600b0b8160000151600b0b1215915050919050565b600460009054906101000a900473ffffffffffffffffffffffffffffffffffffffff1681565b600560009054906101000a900473ffffffffffffffffffffffffffffffffffffffff1681565b600760009054906101000a900473ffffffffffffffffffffffffffffffffffffffff1681565b60008060009054906101000a900473ffffffffffffffffffffffffffffffffffffffff16905090565b6000600560009054906101000a900473ffffffffffffffffffffffffffffffffffffffff1673ffffffffffffffffffffffffffffffffffffffff166370a08231306040518263ffffffff1660e01b8152600401808273ffffffffffffffffffffffffffffffffffffffff16815260200191505060206040518083038186803b15801561282f57600080fd5b505afa158015612843573d6000803e3d6000fd5b505050506040513d602081101561285957600080fd5b8101908080519060200190929190505050905090565b6128776139a8565b73ffffffffffffffffffffffffffffffffffffffff1660008054906101000a900473ffffffffffffffffffffffffffffffffffffffff1673ffffffffffffffffffffffffffffffffffffffff1614612937576040517f08c379a00000000000000000000000000000000000000000000000000000000081526004018080602001828103825260208152602001807f4f776e61626c653a2063616c6c6572206973206e6f7420746865206f776e657281525060200191505060405180910390fd5b80600060146101000a8154816bffffffffffffffffffffffff0219169083600b0b6bffffffffffffffffffffffff16021790555050565b6060600160009054906101000a900473ffffffffffffffffffffffffffffffffffffffff1673ffffffffffffffffffffffffffffffffffffffff163373ffffffffffffffffffffffffffffffffffffffff1614612a16576040517f08c379a00000000000000000000000000000000000000000000000000000000081526004018080602001828103825260238152602001806140996023913960400191505060405180910390fd5b8583612a2182613755565b612a93576040517f08c379a00000000000000000000000000000000000000000000000000000000081526004018080602001828103825260208152602001807f537562736372697074696f6e3a206e6f7420616363657074656420746f6b656e81525060200191505060405180910390fd5b612a9c816137af565b612af1576040517f08c379a00000000000000000000000000000000000000000000000000000000081526004018080602001828103825260228152602001806140bc6022913960400191505060405180910390fd5b600560009054906101000a900473ffffffffffffffffffffffffffffffffffffffff1673ffffffffffffffffffffffffffffffffffffffff168873ffffffffffffffffffffffffffffffffffffffff1614612bb4576040517f08c379a00000000000000000000000000000000000000000000000000000000081526004018080602001828103825260118152602001807f556e737570706f7274656420746f6b656e00000000000000000000000000000081525060200191505060405180910390fd5b600260009054906101000a900473ffffffffffffffffffffffffffffffffffffffff1673ffffffffffffffffffffffffffffffffffffffff168573ffffffffffffffffffffffffffffffffffffffff1614612c77576040517f08c379a00000000000000000000000000000000000000000000000000000000081526004018080602001828103825260158152602001807f556e737570706f727465642061677265656d656e74000000000000000000000081525060200191505060405180910390fd5b505095945050505050565b60606000600160009054906101000a900473ffffffffffffffffffffffffffffffffffffffff1673ffffffffffffffffffffffffffffffffffffffff16633f6c923a89896040518363ffffffff1660e01b815260040180806020018281038252848482818152602001925080828437600081840152601f19601f820116905080830192505050935050505060a06040518083038186803b158015612d2557600080fd5b505afa158015612d39573d6000803e3d6000fd5b505050506040513d60a0811015612d4f57600080fd5b810190808051906020019092919080519060200190929190805190602001909291908051906020019092919080519060200190929190505050505092505050612d9661401a565b600a60008373ffffffffffffffffffffffffffffffffffffffff1673ffffffffffffffffffffffffffffffffffffffff1681526020019081526020016000206040518060600160405290816000820160009054906101000a9004600b0b600b0b600b0b8152602001600182015481526020016002820160009054906101000a90046fffffffffffffffffffffffffffffffff166fffffffffffffffffffffffffffffffff166fffffffffffffffffffffffffffffffff1681525050905060405180606001604052806000600b0b8152602001438152602001612e778361388a565b6fffffffffffffffffffffffffffffffff16815250600a60008473ffffffffffffffffffffffffffffffffffffffff1673ffffffffffffffffffffffffffffffffffffffff16815260200190815260200160002060008201518160000160006101000a8154816bffffffffffffffffffffffff0219169083600b0b6bffffffffffffffffffffffff1602179055506020820151816001015560408201518160020160006101000a8154816fffffffffffffffffffffffffffffffff02191690836fffffffffffffffffffffffffffffffff16021790555090505088888080601f016020809104026020016040519081016040528093929190818152602001838380828437600081840152601f19601f8201169050808301925050505050505092505050979650505050505050565b6060600080612fb6898989896139b0565b91509150600060149054906101000a9004600b0b600b0b81600b0b1215613045576040517f08c379a00000000000000000000000000000000000000000000000000000000081526004018080602001828103825260148152602001807f53756256303a20466c6f7720746f6f206c6f772e00000000000000000000000081525060200191505060405180910390fd5b61305982600b613bc390919063ffffffff16565b5061306261401a565b600a60008473ffffffffffffffffffffffffffffffffffffffff1673ffffffffffffffffffffffffffffffffffffffff1681526020019081526020016000206040518060600160405290816000820160009054906101000a9004600b0b600b0b600b0b8152602001600182015481526020016002820160009054906101000a90046fffffffffffffffffffffffffffffffff166fffffffffffffffffffffffffffffffff166fffffffffffffffffffffffffffffffff16815250509050604051806060016040528083600b0b815260200143815260200182604001516fffffffffffffffffffffffffffffffff16815250600a60008573ffffffffffffffffffffffffffffffffffffffff1673ffffffffffffffffffffffffffffffffffffffff16815260200190815260200160002060008201518160000160006101000a8154816bffffffffffffffffffffffff0219169083600b0b6bffffffffffffffffffffffff1602179055506020820151816001015560408201518160020160006101000a8154816fffffffffffffffffffffffffffffffff02191690836fffffffffffffffffffffffffffffffff16021790555090505089898080601f016020809104026020016040519081016040528093929190818152602001838380828437600081840152601f19601f820116905080830192505050505050509350505050979650505050505050565b606060008061327e898989896139b0565b91509150600060149054906101000a9004600b0b600b0b81600b0b121561330d576040517f08c379a00000000000000000000000000000000000000000000000000000000081526004018080602001828103825260148152602001807f53756256303a20466c6f7720746f6f206c6f772e00000000000000000000000081525060200191505060405180910390fd5b61331561401a565b600a60008473ffffffffffffffffffffffffffffffffffffffff1673ffffffffffffffffffffffffffffffffffffffff1681526020019081526020016000206040518060600160405290816000820160009054906101000a9004600b0b600b0b600b0b8152602001600182015481526020016002820160009054906101000a90046fffffffffffffffffffffffffffffffff166fffffffffffffffffffffffffffffffff166fffffffffffffffffffffffffffffffff16815250509050604051806060016040528083600b0b81526020014381526020016133f58361388a565b6fffffffffffffffffffffffffffffffff16815250600a60008573ffffffffffffffffffffffffffffffffffffffff1673ffffffffffffffffffffffffffffffffffffffff16815260200190815260200160002060008201518160000160006101000a8154816bffffffffffffffffffffffff0219169083600b0b6bffffffffffffffffffffffff1602179055506020820151816001015560408201518160020160006101000a8154816fffffffffffffffffffffffffffffffff02191690836fffffffffffffffffffffffffffffffff16021790555090505089898080601f016020809104026020016040519081016040528093929190818152602001838380828437600081840152601f19601f820116905080830192505050505050509350505050979650505050505050565b600660009054906101000a900473ffffffffffffffffffffffffffffffffffffffff1681565b6135526139a8565b73ffffffffffffffffffffffffffffffffffffffff1660008054906101000a900473ffffffffffffffffffffffffffffffffffffffff1673ffffffffffffffffffffffffffffffffffffffff1614613612576040517f08c379a00000000000000000000000000000000000000000000000000000000081526004018080602001828103825260208152602001807f4f776e61626c653a2063616c6c6572206973206e6f7420746865206f776e657281525060200191505060405180910390fd5b600073ffffffffffffffffffffffffffffffffffffffff168173ffffffffffffffffffffffffffffffffffffffff161415613698576040517f08c379a00000000000000000000000000000000000000000000000000000000081526004018080602001828103825260268152602001806140736026913960400191505060405180910390fd5b8073ffffffffffffffffffffffffffffffffffffffff1660008054906101000a900473ffffffffffffffffffffffffffffffffffffffff1673ffffffffffffffffffffffffffffffffffffffff167f8be0079c531659141344cd1fd0a4f28419497f9722a3daafe3b4186f6b6457e060405160405180910390a3806000806101000a81548173ffffffffffffffffffffffffffffffffffffffff021916908373ffffffffffffffffffffffffffffffffffffffff16021790555050565b6000600560009054906101000a900473ffffffffffffffffffffffffffffffffffffffff1673ffffffffffffffffffffffffffffffffffffffff168273ffffffffffffffffffffffffffffffffffffffff16149050919050565b60007fa9214cc96615e0085d3bb077758db69497dc2dce3b2b1e97bc93c3d18d83efd38273ffffffffffffffffffffffffffffffffffffffff16637730599e6040518163ffffffff1660e01b815260040160206040518083038186803b15801561381857600080fd5b505afa15801561382c573d6000803e3d6000fd5b505050506040513d602081101561384257600080fd5b8101908080519060200190929190505050149050919050565b600061386982600001613bf3565b9050919050565b600061387f8360000183613c04565b60001c905092915050565b6000806138a4836020015143613c8790919063ffffffff16565b905060006138c28460000151600b0b83613cd190919063ffffffff16565b90506000819050806fffffffffffffffffffffffffffffffff168214613933576040517f08c379a00000000000000000000000000000000000000000000000000000000081526004018080602001828103825260228152602001806140ff6022913960400191505060405180910390fd5b61396e816fffffffffffffffffffffffffffffffff1686604001516fffffffffffffffffffffffffffffffff16613d5790919063ffffffff16565b9350505050919050565b60006139a0836000018373ffffffffffffffffffffffffffffffffffffffff1660001b613ddf565b905092915050565b600033905090565b600080600160009054906101000a900473ffffffffffffffffffffffffffffffffffffffff1673ffffffffffffffffffffffffffffffffffffffff16633f6c923a87876040518363ffffffff1660e01b815260040180806020018281038252848482818152602001925080828437600081840152601f19601f820116905080830192505050935050505060a06040518083038186803b158015613a5257600080fd5b505afa158015613a66573d6000803e3d6000fd5b505050506040513d60a0811015613a7c57600080fd5b810190808051906020019092919080519060200190929190805190602001909291908051906020019092919080519060200190929190505050909192935090919250905050809250508373ffffffffffffffffffffffffffffffffffffffff1663aabd2668600560009054906101000a900473ffffffffffffffffffffffffffffffffffffffff16856040518363ffffffff1660e01b8152600401808373ffffffffffffffffffffffffffffffffffffffff1681526020018281526020019250505060806040518083038186803b158015613b5657600080fd5b505afa158015613b6a573d6000803e3d6000fd5b505050506040513d6080811015613b8057600080fd5b8101908080519060200190929190805190602001909291908051906020019092919080519060200190929190505050909192509050508091505094509492505050565b6000613beb836000018373ffffffffffffffffffffffffffffffffffffffff1660001b613ec7565b905092915050565b600081600001805490509050919050565b600081836000018054905011613c65576040517f08c379a00000000000000000000000000000000000000000000000000000000081526004018080602001828103825260228152602001806140516022913960400191505060405180910390fd5b826000018281548110613c7457fe5b9060005260206000200154905092915050565b6000613cc983836040518060400160405280601e81526020017f536166654d6174683a207375627472616374696f6e206f766572666c6f770000815250613f37565b905092915050565b600080831415613ce45760009050613d51565b6000828402905082848281613cf557fe5b0414613d4c576040517f08c379a00000000000000000000000000000000000000000000000000000000081526004018080602001828103825260218152602001806140de6021913960400191505060405180910390fd5b809150505b92915050565b600080828401905083811015613dd5576040517f08c379a000000000000000000000000000000000000000000000000000000000815260040180806020018281038252601b8152602001807f536166654d6174683a206164646974696f6e206f766572666c6f77000000000081525060200191505060405180910390fd5b8091505092915050565b60008083600101600084815260200190815260200160002054905060008114613ebb5760006001820390506000600186600001805490500390506000866000018281548110613e2a57fe5b9060005260206000200154905080876000018481548110613e4757fe5b9060005260206000200181905550600183018760010160008381526020019081526020016000208190555086600001805480613e7f57fe5b60019003818190600052602060002001600090559055866001016000878152602001908152602001600020600090556001945050505050613ec1565b60009150505b92915050565b6000613ed38383613ff7565b613f2c578260000182908060018154018082558091505060019003906000526020600020016000909190919091505582600001805490508360010160008481526020019081526020016000208190555060019050613f31565b600090505b92915050565b6000838311158290613fe4576040517f08c379a00000000000000000000000000000000000000000000000000000000081526004018080602001828103825283818151815260200191508051906020019080838360005b83811015613fa9578082015181840152602081019050613f8e565b50505050905090810190601f168015613fd65780820380516001836020036101000a031916815260200191505b509250505060405180910390fd5b5060008385039050809150509392505050565b600080836001016000848152602001908152602001600020541415905092915050565b60405180606001604052806000600b0b81526020016000815260200160006fffffffffffffffffffffffffffffffff168152509056fe456e756d657261626c655365743a20696e646578206f7574206f6620626f756e64734f776e61626c653a206e6577206f776e657220697320746865207a65726f2061646472657373537562736372697074696f6e3a20737570706f7274206f6e6c79206f6e6520686f7374537562736372697074696f6e3a206f6e6c7920434641763120737570706f72746564536166654d6174683a206d756c7469706c69636174696f6e206f766572666c6f77556e61626c6520746f20636f6e7665727420756e69747320746f2075696e74313238a264697066735822122021600ecf46969da6e1ad6a2f9efd039b053588b17de1622f1ddb8565a2b7a47264736f6c63430007010033",
  "immutableReferences": {},
  "source": "// SPDX-License-Identifier: MIT\npragma solidity 0.7.1;\n\nimport {\n    ISuperfluid,\n    ISuperToken,\n    ISuperAgreement,\n    ISuperApp,\n    SuperAppDefinitions,\n    IERC20 as SFIERC20\n} from \"@superfluid-finance/ethereum-contracts/contracts/interfaces/superfluid/ISuperfluid.sol\";\n\nimport {\n    IConstantFlowAgreementV1\n} from \"@superfluid-finance/ethereum-contracts/contracts/interfaces/agreements/IConstantFlowAgreementV1.sol\";\n\nimport {\n    IInstantDistributionAgreementV1\n} from \"@superfluid-finance/ethereum-contracts/contracts/interfaces/agreements/IInstantDistributionAgreementV1.sol\";\n\nimport \"@openzeppelin/contracts/access/Ownable.sol\";\nimport \"@openzeppelin/contracts/utils/EnumerableSet.sol\";\nimport \"@openzeppelin/contracts/math/SafeMath.sol\";\nimport \"@openzeppelin/contracts/token/ERC777/IERC777Recipient.sol\";\nimport \"@openzeppelin/contracts/introspection/IERC1820Registry.sol\";\n\nimport \"@uniswap/v2-periphery/contracts/interfaces/IERC20.sol\";\nimport \"@uniswap/v2-periphery/contracts/interfaces/IUniswapV2Router02.sol\";\n\ncontract SubscriptionV1 is ISuperApp, Ownable, IERC777Recipient {\n    using SafeMath for uint256;\n\n    uint constant MAX_UINT = 2**256 - 1;\n\n    int96 private _minFlowRate;\n\n    ISuperfluid private _host; // host\n    IConstantFlowAgreementV1 private _cfa; // the stored constant flow agreement class address\n    IInstantDistributionAgreementV1 private _ida;\n\n    IERC20 public _acceptedERC20;\n    ISuperToken public _acceptedSuperToken; // accepted token\n\n    IERC20 public _rewardERC20;\n    ISuperToken public _rewardSuperToken;\n\n    IUniswapV2Router02 _uniswapRouter;\n\n    IERC1820Registry private _erc1820 = IERC1820Registry(0x1820a4B7618BdE71Dce8cdc73aAB6C95905faD24);\n\n    bytes32 constant private _TOKENS_SENDER_INTERFACE_HASH = keccak256(\"ERC777TokensSender\");\n    bytes32 constant private _TOKENS_RECIPIENT_INTERFACE_HASH = keccak256(\"ERC777TokensRecipient\");\n\n    // subscription info of subscribers for payouts\n    struct SubscriptionInfo {\n      int96 curFlowRate;\n      uint updateBlock;\n      uint128 unitsOwed;\n    }\n\n    // subscription info of subscribers\n    mapping(address => SubscriptionInfo) private _subInfos;\n\n    // set of all subscribers\n    EnumerableSet.AddressSet private _subscriptionSet;\n    using EnumerableSet for EnumerableSet.AddressSet;\n\n    event Distribution(uint32 index, uint[] amounts);\n\n    constructor(\n        ISuperfluid host,\n        IConstantFlowAgreementV1 cfa,\n        IInstantDistributionAgreementV1 ida,\n        IERC20 acceptedERC20Token,\n        IERC20 rewardToken,\n        IUniswapV2Router02 uniswapRouter,\n        int96 minFlowRate\n    ) {\n        assert(address(host) != address(0));\n        assert(address(cfa) != address(0));\n        assert(address(ida) != address(0));\n        assert(address(acceptedERC20Token) != address(0));\n        assert(address(rewardToken) != address(0));\n        assert(address(uniswapRouter) != address(0));\n\n        _host = host;\n        _cfa = cfa;\n        _ida = ida;\n\n        uint256 configWord =\n            SuperAppDefinitions.TYPE_APP_FINAL;\n\n        _host.registerApp(configWord);\n\n        // get acceptedSuperToken from acceptedERC20Token\n        _acceptedERC20 = acceptedERC20Token;\n        (address acceptedWrapper,) = _host.getERC20Wrapper(\n            SFIERC20(address(acceptedERC20Token)),\n            string(abi.encodePacked(acceptedERC20Token.symbol(), \"x\"))\n        );\n        _acceptedSuperToken = ISuperToken(acceptedWrapper);\n\n        _rewardERC20 = rewardToken;\n        (address rewardWrapper,) = _host.getERC20Wrapper(\n            SFIERC20(address(rewardToken)),\n            string(abi.encodePacked(rewardToken.symbol(), \"x\"))\n        );\n        _rewardSuperToken = ISuperToken(rewardWrapper);\n\n        // set uniswap router\n        _uniswapRouter = uniswapRouter;\n\n        _minFlowRate = minFlowRate;\n\n        // approve uniswap router to spend accepted tokens\n        _acceptedERC20.approve(address(_uniswapRouter), MAX_UINT);\n        // approve rewardSuperToken to spend unlimited reward tokens\n        _rewardERC20.approve(address(_rewardSuperToken), MAX_UINT);\n\n        _erc1820.setInterfaceImplementer(address(this), _TOKENS_RECIPIENT_INTERFACE_HASH, address(this));\n    }\n\n    function hasSubscription (address user) public view returns (bool) {\n        SubscriptionInfo memory sub = _subInfos[user];\n        return sub.curFlowRate >= _minFlowRate;\n    }\n\n    function subFlow (address user) public view returns (int96) {\n        SubscriptionInfo memory sub = _subInfos[user];\n        return sub.curFlowRate;\n    }\n\n    function acceptedTokenBalance () public view returns (uint256) {\n        return _acceptedSuperToken.balanceOf(address(this));\n    }\n\n    function setMinFlowRate (int96 newFlowRate) public onlyOwner {\n        _minFlowRate = newFlowRate;\n    }\n\n    function distributeReward (uint amountOutMin, uint32 idaIndex) public returns (uint32) {\n        // downgrade super tokens\n        uint256 tokenBalance = acceptedTokenBalance();\n        _acceptedSuperToken.downgrade(tokenBalance);\n\n        // swap tokens on uniswap\n        address[] memory path = new address[](2);\n        path[0] = address(_acceptedERC20);\n        path[1] = address(_rewardERC20);\n        // swap tokens on uniswap for amountOutMin\n        uint[] memory amounts = _uniswapRouter.swapExactTokensForTokens(\n            tokenBalance,\n            amountOutMin,\n            path,\n            address(this),\n            block.timestamp\n        );\n\n        uint256 rewardBalance = _rewardERC20.balanceOf(address(this));\n\n        // upgrade reward tokens to super tokens\n        _rewardSuperToken.upgrade(rewardBalance);\n\n        // create ida and send to all subscribers\n        _host.callAgreement(\n            _ida,\n            abi.encodeWithSelector(\n                _ida.createIndex.selector,\n                _rewardSuperToken,\n                idaIndex,\n                new bytes(0)\n            )\n        );\n\n        uint i = 0;\n        while (i < _subscriptionSet.length()) {\n          address user = _subscriptionSet.at(i);\n          SubscriptionInfo memory subInfo = _subInfos[user];\n\n          _host.callAgreement(\n              _ida,\n              abi.encodeWithSelector(\n                  _ida.updateSubscription.selector,\n                  _rewardSuperToken,\n                  idaIndex,\n                  user,\n                  _getUnitsOwed(subInfo),\n                  new bytes(0)\n              )\n          );\n\n          if (subInfo.curFlowRate == 0) {\n              _subscriptionSet.remove(user);\n          } else {\n              i++;\n          }\n\n          _subInfos[user] = SubscriptionInfo(subInfo.curFlowRate, block.number, 0);\n        }\n\n        _host.callAgreement(\n            _ida,\n            abi.encodeWithSelector(\n                _ida.distribute.selector,\n                _rewardSuperToken,\n                idaIndex,\n                rewardBalance,\n                new bytes(0)\n            )\n        );\n\n        emit Distribution(idaIndex, amounts);\n    }\n\n    function _getFlowInfo(\n        bytes calldata ctx,\n        address agreementClass,\n        bytes32 agreementId\n    )\n        private view\n        returns (address sender, int96 flowRate)\n    {\n        (,,sender,,) = _host.decodeCtx(ctx);\n\n        (,flowRate,,) = IConstantFlowAgreementV1(agreementClass).getFlowByID(_acceptedSuperToken, agreementId);\n    }\n\n    function _getUnitsOwed (SubscriptionInfo memory subInfo)\n        private view\n        returns (uint128 unitsOwed)\n    {\n        uint blocksPassed = block.number.sub(uint256(subInfo.updateBlock));\n\n        // make sure uint256 -> uint128 conversion doesn't cause error\n        uint256 units = blocksPassed.mul(uint256(subInfo.curFlowRate));\n        uint128 additionalUnits = uint128(units);\n\n        require(units == additionalUnits, \"Unable to convert units to uint128\");\n\n        unitsOwed = uint128(uint256(subInfo.unitsOwed).add(additionalUnits));\n    }\n\n\n    // SUPER APP CALLBACKS\n\n    function beforeAgreementCreated(\n        ISuperToken superToken,\n        bytes calldata /* ctx */,\n        address agreementClass,\n        bytes32 /* agreementId */\n    )\n        external view override\n        onlyHost\n        onlyExpected(superToken, agreementClass)\n        returns (bytes memory /* cbdata */)\n    {\n        require(superToken == _acceptedSuperToken, \"Unsupported token\");\n        require(agreementClass == address(_cfa), \"Unsupported agreement\");\n    }\n\n\n    function afterAgreementCreated(\n        ISuperToken /* superToken */,\n        bytes calldata ctx,\n        address agreementClass,\n        bytes32 agreementId,\n        bytes calldata /* cbdata */\n    )\n        external override\n        returns (bytes memory newCtx)\n    {\n        (address sender, int96 flowRate) = _getFlowInfo(ctx, agreementClass, agreementId);\n        require(flowRate >= _minFlowRate, \"SubV0: Flow too low.\");\n\n        _subscriptionSet.add(sender);\n\n        SubscriptionInfo memory sub = _subInfos[sender];\n        _subInfos[sender] = SubscriptionInfo(flowRate, block.number, sub.unitsOwed);\n\n        newCtx = ctx;\n    }\n\n\n    function beforeAgreementUpdated(\n        ISuperToken superToken,\n        bytes calldata /* ctx */,\n        address agreementClass,\n        bytes32 /* agreementId */\n    )\n        external view override\n        onlyHost\n        onlyExpected(superToken, agreementClass)\n        returns (bytes memory /* data */)\n    {\n        require(superToken == _acceptedSuperToken, \"Unsupported token\");\n        require(agreementClass == address(_cfa), \"Unsupported agreement\");\n    }\n\n\n    function afterAgreementUpdated(\n        ISuperToken /* superToken */,\n        bytes calldata ctx,\n        address agreementClass,\n        bytes32 agreementId,\n        bytes calldata /* cbdata */\n    )\n        external override\n        returns (bytes memory newCtx)\n    {\n        (address sender, int96 flowRate) = _getFlowInfo(ctx, agreementClass, agreementId);\n        require(flowRate >= _minFlowRate, \"SubV0: Flow too low.\");\n\n        SubscriptionInfo memory sub = _subInfos[sender];\n        _subInfos[sender] = SubscriptionInfo(flowRate, block.number, _getUnitsOwed(sub));\n\n        newCtx = ctx;\n    }\n\n\n    function beforeAgreementTerminated(\n        ISuperToken superToken,\n        bytes calldata /* ctx */,\n        address agreementClass,\n        bytes32 /* agreementId */\n    )\n        external override\n        view\n        returns (bytes memory /* cbdata */)\n    {\n        // no idea what should  go here\n        if (_isSameToken(superToken) && _isCFAv1(agreementClass)) return new bytes(1);\n        return new bytes(0);\n    }\n\n\n    function afterAgreementTerminated(\n        ISuperToken /* superToken */,\n        bytes calldata ctx,\n        address /* agreementClass */,\n        bytes32 /* agreementId */,\n        bytes calldata /* cbdata */\n    )\n        external override\n        returns (bytes memory newCtx)\n    {\n        (,,address sender,,) = _host.decodeCtx(ctx);\n\n        SubscriptionInfo memory subInfo = _subInfos[sender];\n        _subInfos[sender] = SubscriptionInfo(0, block.number, _getUnitsOwed(subInfo));\n        newCtx = ctx;\n    }\n\n    function _isSameToken(ISuperToken superToken) private view returns (bool) {\n        return address(superToken) == address(_acceptedSuperToken);\n    }\n\n    function _isCFAv1(address agreementClass) private pure returns (bool) {\n        return ISuperAgreement(agreementClass).agreementType()\n            == keccak256(\"org.superfluid-finance.agreements.ConstantFlowAgreement.v1\");\n    }\n\n    modifier onlyHost() {\n        require(msg.sender == address(_host), \"Subscription: support only one host\");\n        _;\n    }\n\n    modifier onlyExpected(ISuperToken superToken, address agreementClass) {\n        require(_isSameToken(superToken), \"Subscription: not accepted token\");\n        require(_isCFAv1(agreementClass), \"Subscription: only CFAv1 supported\");\n        _;\n    }\n\n\n    // ERC777\n\n    function tokensReceived(\n        address /* operator */,\n        address /* from */,\n        address /* to */,\n        uint256 /* amount */,\n        bytes calldata /* userData */,\n        bytes calldata /* operatorData */\n    )\n        external override\n    {}\n}\n",
  "sourcePath": "/Users/newuser/projects/outpost-subscriptions/contracts/SubscriptionV1.sol",
  "compiler": {
    "name": "solc",
    "version": "0.7.1+commit.f4a555be.Emscripten.clang"
  },
  "schemaVersion": "3.3.0",
  "updatedAt": "2020-10-22T16:35:47.115Z",
  "networkType": "ethereum",
  "devdoc": {
    "kind": "dev",
    "methods": {
      "owner()": {
        "details": "Returns the address of the current owner."
      },
      "renounceOwnership()": {
        "details": "Leaves the contract without owner. It will not be possible to call `onlyOwner` functions anymore. Can only be called by the current owner. NOTE: Renouncing ownership will leave the contract without an owner, thereby removing any functionality that is only available to the owner."
      },
      "transferOwnership(address)": {
        "details": "Transfers ownership of the contract to a new account (`newOwner`). Can only be called by the current owner."
      }
    },
    "version": 1
  },
  "userdoc": {
    "kind": "user",
    "methods": {},
    "version": 1
  }
}